:100000000C9461000C9473000C9473000C947300B6
:100010000C9473000C9473000C9473000C94730094
:100020000C9473000C9473000C9473000C94730084
:100030000C9473000C9473000C9473000C94730074
:100040000C9455010C9473000C9473000C94730081
:100050000C9473000C9473000C9473000C94730054
:100060000C9473000C947300000000070002010060
:100070000003040600000000000000000102040864
:100080001020408001020408102001020408102002
:10009000040404040404040402020202020203032E
:1000A00003030303000000002300260029000000D2
:1000B0000000250028002B0000000000240027007D
:1000C0002A0011241FBECFEFD8E0DEBFCDBF21E054
:1000D000A0E0B1E001C01D92AA30B207E1F70E9492
:1000E00025020C9432020C94000061E088E00E942A
:1000F000C00060E08CE00C94C0008CE00E942C01F9
:1001000021E0892B09F420E020930001222371F0E3
:1001100061E088E00E94FC0060ED77E080E090E024
:100120000E94C40160E088E00C94FC0008958330D4
:1001300081F028F4813099F08230A1F00895863062
:10014000A9F08730B9F08430D1F4809180008F7DA0
:1001500003C0809180008F7780938000089584B5DC
:100160008F7702C084B58F7D84BD08958091B000E3
:100170008F7703C08091B0008F7D8093B000089589
:10018000CF93DF9390E0FC01E458FF4F2491FC01F2
:10019000E057FF4F8491882361F190E0880F991F09
:1001A000FC01E854FF4FC591D491FC01E255FF4F8B
:1001B000A591B491611109C09FB7F89488812095E9
:1001C00082238883EC912E230BC0623061F49FB7A9
:1001D000F8943881822F809583238883EC912E2B8D
:1001E0002C939FBF06C08FB7F894E8812E2B2883ED
:1001F0008FBFDF91CF9108951F93CF93DF93282F67
:1002000030E0F901E859FF4F8491F901E458FF4FBC
:10021000D491F901E057FF4FC491CC23C9F0162FB8
:1002200081110E949700EC2FF0E0EE0FFF1FE255C6
:10023000FF4FA591B4918FB7F894111105C09C910F
:10024000ED2FE095E92302C0EC91ED2BEC938FBFED
:10025000DF91CF911F910895CF93DF93282F30E046
:10026000F901E859FF4F8491F901E458FF4FD49107
:10027000F901E057FF4FC491CC2391F081110E9406
:100280009700EC2FF0E0EE0FFF1FEC55FF4FA5910C
:10029000B491EC91ED2381E090E021F480E002C084
:1002A00080E090E0DF91CF9108951F920F920FB6FA
:1002B0000F9211242F933F938F939F93AF93BF93EC
:1002C0008091020190910301A0910401B091050178
:1002D0003091010123E0230F2D3720F40196A11D59
:1002E000B11D05C026E8230F0296A11DB11D209364
:1002F00001018093020190930301A0930401B09344
:1003000005018091060190910701A0910801B0912B
:1003100009010196A11DB11D80930601909307016B
:10032000A0930801B0930901BF91AF919F918F9164
:100330003F912F910F900FBE0F901F9018953FB7D0
:10034000F8948091060190910701A0910801B09165
:10035000090126B5A89B05C02F3F19F00196A11DE4
:10036000B11D3FBFBA2FA92F982F8827820F911D4B
:10037000A11DB11DBC01CD0142E0660F771F881F92
:10038000991F4A95D1F70895CF92DF92EF92FF928D
:10039000CF93DF936B017C010E949F01EB01C1149D
:1003A000D104E104F10479F00E949F016C1B7D0BE4
:1003B000683E7340A0F381E0C81AD108E108F10853
:1003C000C851DC4FECCFDF91CF91FF90EF90DF90E1
:1003D000CF900895789484B5826084BD84B581609F
:1003E00084BD85B5826085BD85B5816085BDEEE63D
:1003F000F0E0808181608083E1E8F0E0108280811C
:1004000082608083808181608083E0E8F0E0808189
:1004100081608083E1EBF0E0808184608083E0EBA9
:10042000F0E0808181608083EAE7F0E08081846091
:1004300080838081826080838081816080838081ED
:10044000806880831092C10008950E94EA010E9492
:100450007500C0E0D0E00E947D002097E1F30E948B
:080460000000F9CFF894FFCF72
:00000001FF
